{
  "_format": "hh-sol-artifact-1",
  "contractName": "TokenizedBallot",
  "sourceName": "contracts/TokenizedBallot.sol",
  "abi": [
    {
      "inputs": [
        {
          "internalType": "bytes32[]",
          "name": "proposalNames",
          "type": "bytes32[]"
        },
        {
          "internalType": "address",
          "name": "_tokenContract",
          "type": "address"
        },
        {
          "internalType": "uint256",
          "name": "_targetBlocknumber",
          "type": "uint256"
        }
      ],
      "stateMutability": "nonpayable",
      "type": "constructor"
    },
    {
      "inputs": [],
      "name": "ballotSize",
      "outputs": [
        {
          "internalType": "uint256",
          "name": "",
          "type": "uint256"
        }
      ],
      "stateMutability": "view",
      "type": "function"
    },
    {
      "inputs": [],
      "name": "owner",
      "outputs": [
        {
          "internalType": "address",
          "name": "",
          "type": "address"
        }
      ],
      "stateMutability": "view",
      "type": "function"
    },
    {
      "inputs": [
        {
          "internalType": "uint256",
          "name": "",
          "type": "uint256"
        }
      ],
      "name": "proposals",
      "outputs": [
        {
          "internalType": "bytes32",
          "name": "name",
          "type": "bytes32"
        },
        {
          "internalType": "uint256",
          "name": "voteCount",
          "type": "uint256"
        }
      ],
      "stateMutability": "view",
      "type": "function"
    },
    {
      "inputs": [],
      "name": "targetBlocknumber",
      "outputs": [
        {
          "internalType": "uint256",
          "name": "",
          "type": "uint256"
        }
      ],
      "stateMutability": "view",
      "type": "function"
    },
    {
      "inputs": [
        {
          "internalType": "address",
          "name": "newOwner",
          "type": "address"
        }
      ],
      "name": "transferOwnership",
      "outputs": [],
      "stateMutability": "nonpayable",
      "type": "function"
    },
    {
      "inputs": [
        {
          "internalType": "bytes32[]",
          "name": "proposalNames",
          "type": "bytes32[]"
        },
        {
          "internalType": "uint256",
          "name": "_targetBlocknumber",
          "type": "uint256"
        }
      ],
      "name": "updateBallot",
      "outputs": [],
      "stateMutability": "nonpayable",
      "type": "function"
    },
    {
      "inputs": [
        {
          "internalType": "uint256",
          "name": "proposal",
          "type": "uint256"
        },
        {
          "internalType": "uint256",
          "name": "amount",
          "type": "uint256"
        }
      ],
      "name": "vote",
      "outputs": [],
      "stateMutability": "nonpayable",
      "type": "function"
    },
    {
      "inputs": [
        {
          "internalType": "address",
          "name": "account",
          "type": "address"
        }
      ],
      "name": "votingPower",
      "outputs": [
        {
          "internalType": "uint256",
          "name": "",
          "type": "uint256"
        }
      ],
      "stateMutability": "view",
      "type": "function"
    },
    {
      "inputs": [
        {
          "internalType": "address",
          "name": "",
          "type": "address"
        }
      ],
      "name": "votingPowerSpent",
      "outputs": [
        {
          "internalType": "uint256",
          "name": "",
          "type": "uint256"
        }
      ],
      "stateMutability": "view",
      "type": "function"
    },
    {
      "inputs": [],
      "name": "winnerName",
      "outputs": [
        {
          "internalType": "bytes32",
          "name": "winnerName_",
          "type": "bytes32"
        }
      ],
      "stateMutability": "view",
      "type": "function"
    },
    {
      "inputs": [],
      "name": "winningProposal",
      "outputs": [
        {
          "internalType": "uint256",
          "name": "winningProposal_",
          "type": "uint256"
        }
      ],
      "stateMutability": "view",
      "type": "function"
    }
  ],
  "bytecode": "0x60806040523480156200001157600080fd5b5060405162001304380380620013048339818101604052810190620000379190620003cc565b33600260006101000a81548173ffffffffffffffffffffffffffffffffffffffff021916908373ffffffffffffffffffffffffffffffffffffffff160217905550816000806101000a81548173ffffffffffffffffffffffffffffffffffffffff021916908373ffffffffffffffffffffffffffffffffffffffff16021790555080600181905550825160048190555060005b83518110156200015e5760036040518060400160405280868481518110620000f757620000f662000447565b5b60200260200101518152602001600081525090806001815401808255809150506001900390600052602060002090600202016000909190919091506000820151816000015560208201518160010155505080806200015590620004a5565b915050620000ca565b50505050620004f2565b6000604051905090565b600080fd5b600080fd5b600080fd5b6000601f19601f8301169050919050565b7f4e487b7100000000000000000000000000000000000000000000000000000000600052604160045260246000fd5b620001cc8262000181565b810181811067ffffffffffffffff82111715620001ee57620001ed62000192565b5b80604052505050565b60006200020362000168565b9050620002118282620001c1565b919050565b600067ffffffffffffffff82111562000234576200023362000192565b5b602082029050602081019050919050565b600080fd5b6000819050919050565b6200025f816200024a565b81146200026b57600080fd5b50565b6000815190506200027f8162000254565b92915050565b60006200029c620002968462000216565b620001f7565b90508083825260208201905060208402830185811115620002c257620002c162000245565b5b835b81811015620002ef5780620002da88826200026e565b845260208401935050602081019050620002c4565b5050509392505050565b600082601f8301126200031157620003106200017c565b5b81516200032384826020860162000285565b91505092915050565b600073ffffffffffffffffffffffffffffffffffffffff82169050919050565b600062000359826200032c565b9050919050565b6200036b816200034c565b81146200037757600080fd5b50565b6000815190506200038b8162000360565b92915050565b6000819050919050565b620003a68162000391565b8114620003b257600080fd5b50565b600081519050620003c6816200039b565b92915050565b600080600060608486031215620003e857620003e762000172565b5b600084015167ffffffffffffffff81111562000409576200040862000177565b5b6200041786828701620002f9565b93505060206200042a868287016200037a565b92505060406200043d86828701620003b5565b9150509250925092565b7f4e487b7100000000000000000000000000000000000000000000000000000000600052603260045260246000fd5b7f4e487b7100000000000000000000000000000000000000000000000000000000600052601160045260246000fd5b6000620004b28262000391565b91507fffffffffffffffffffffffffffffffffffffffffffffffffffffffffffffffff8203620004e757620004e662000476565b5b600182019050919050565b610e0280620005026000396000f3fe608060405234801561001057600080fd5b50600436106100a95760003560e01c8063b384abef11610071578063b384abef14610169578063b60252d914610185578063c07473f6146101a1578063e2ba53f0146101d1578063ed693d2e146101ef578063f2fde38b1461020d576100a9565b8063013cf08b146100ae57806305dd7c42146100df578063609ff1bd146100fd5780638da5cb5b1461011b578063a720035114610139575b600080fd5b6100c860048036038101906100c391906107e0565b610229565b6040516100d6929190610835565b60405180910390f35b6100e761025d565b6040516100f4919061085e565b60405180910390f35b610105610263565b604051610112919061085e565b60405180910390f35b6101236102eb565b60405161013091906108ba565b60405180910390f35b610153600480360381019061014e9190610901565b610311565b604051610160919061085e565b60405180910390f35b610183600480360381019061017e919061092e565b610329565b005b61019f600480360381019061019a9190610af3565b61040a565b005b6101bb60048036038101906101b69190610901565b61054c565b6040516101c8919061085e565b60405180910390f35b6101d961063d565b6040516101e69190610b4f565b60405180910390f35b6101f7610671565b604051610204919061085e565b60405180910390f35b61022760048036038101906102229190610901565b610677565b005b6003818154811061023957600080fd5b90600052602060002090600202016000915090508060000154908060010154905082565b60045481565b6000806000905060005b6003805490508110156102e657816003828154811061028f5761028e610b6a565b5b90600052602060002090600202016001015411156102d357600381815481106102bb576102ba610b6a565b5b90600052602060002090600202016001015491508092505b80806102de90610bc8565b91505061026d565b505090565b600260009054906101000a900473ffffffffffffffffffffffffffffffffffffffff1681565b60056020528060005260406000206000915090505481565b806103333361054c565b1015610374576040517f08c379a000000000000000000000000000000000000000000000000000000000815260040161036b90610c6d565b60405180910390fd5b80600560003373ffffffffffffffffffffffffffffffffffffffff1673ffffffffffffffffffffffffffffffffffffffff16815260200190815260200160002060008282546103c39190610c8d565b9250508190555080600383815481106103df576103de610b6a565b5b906000526020600020906002020160010160008282546103ff9190610c8d565b925050819055505050565b600260009054906101000a900473ffffffffffffffffffffffffffffffffffffffff1673ffffffffffffffffffffffffffffffffffffffff163373ffffffffffffffffffffffffffffffffffffffff161461049a576040517f08c379a000000000000000000000000000000000000000000000000000000000815260040161049190610d0d565b60405180910390fd5b806001819055508151600481905550600360006104b7919061074b565b60005b825181101561054757600360405180604001604052808584815181106104e3576104e2610b6a565b5b602002602001015181526020016000815250908060018154018082558091505060019003906000526020600020906002020160009091909190915060008201518160000155602082015181600101555050808061053f90610bc8565b9150506104ba565b505050565b6000600560008373ffffffffffffffffffffffffffffffffffffffff1673ffffffffffffffffffffffffffffffffffffffff1681526020019081526020016000205460008054906101000a900473ffffffffffffffffffffffffffffffffffffffff1673ffffffffffffffffffffffffffffffffffffffff16633a46b1a8846001546040518363ffffffff1660e01b81526004016105eb929190610d2d565b602060405180830381865afa158015610608573d6000803e3d6000fd5b505050506040513d601f19601f8201168201806040525081019061062c9190610d6b565b6106369190610d98565b9050919050565b60006003610649610263565b8154811061065a57610659610b6a565b5b906000526020600020906002020160000154905090565b60015481565b600260009054906101000a900473ffffffffffffffffffffffffffffffffffffffff1673ffffffffffffffffffffffffffffffffffffffff163373ffffffffffffffffffffffffffffffffffffffff1614610707576040517f08c379a00000000000000000000000000000000000000000000000000000000081526004016106fe90610d0d565b60405180910390fd5b80600260006101000a81548173ffffffffffffffffffffffffffffffffffffffff021916908373ffffffffffffffffffffffffffffffffffffffff16021790555050565b508054600082556002029060005260206000209081019061076c919061076f565b50565b5b8082111561079257600080820160009055600182016000905550600201610770565b5090565b6000604051905090565b600080fd5b600080fd5b6000819050919050565b6107bd816107aa565b81146107c857600080fd5b50565b6000813590506107da816107b4565b92915050565b6000602082840312156107f6576107f56107a0565b5b6000610804848285016107cb565b91505092915050565b6000819050919050565b6108208161080d565b82525050565b61082f816107aa565b82525050565b600060408201905061084a6000830185610817565b6108576020830184610826565b9392505050565b60006020820190506108736000830184610826565b92915050565b600073ffffffffffffffffffffffffffffffffffffffff82169050919050565b60006108a482610879565b9050919050565b6108b481610899565b82525050565b60006020820190506108cf60008301846108ab565b92915050565b6108de81610899565b81146108e957600080fd5b50565b6000813590506108fb816108d5565b92915050565b600060208284031215610917576109166107a0565b5b6000610925848285016108ec565b91505092915050565b60008060408385031215610945576109446107a0565b5b6000610953858286016107cb565b9250506020610964858286016107cb565b9150509250929050565b600080fd5b6000601f19601f8301169050919050565b7f4e487b7100000000000000000000000000000000000000000000000000000000600052604160045260246000fd5b6109bc82610973565b810181811067ffffffffffffffff821117156109db576109da610984565b5b80604052505050565b60006109ee610796565b90506109fa82826109b3565b919050565b600067ffffffffffffffff821115610a1a57610a19610984565b5b602082029050602081019050919050565b600080fd5b610a398161080d565b8114610a4457600080fd5b50565b600081359050610a5681610a30565b92915050565b6000610a6f610a6a846109ff565b6109e4565b90508083825260208201905060208402830185811115610a9257610a91610a2b565b5b835b81811015610abb5780610aa78882610a47565b845260208401935050602081019050610a94565b5050509392505050565b600082601f830112610ada57610ad961096e565b5b8135610aea848260208601610a5c565b91505092915050565b60008060408385031215610b0a57610b096107a0565b5b600083013567ffffffffffffffff811115610b2857610b276107a5565b5b610b3485828601610ac5565b9250506020610b45858286016107cb565b9150509250929050565b6000602082019050610b646000830184610817565b92915050565b7f4e487b7100000000000000000000000000000000000000000000000000000000600052603260045260246000fd5b7f4e487b7100000000000000000000000000000000000000000000000000000000600052601160045260246000fd5b6000610bd3826107aa565b91507fffffffffffffffffffffffffffffffffffffffffffffffffffffffffffffffff8203610c0557610c04610b99565b5b600182019050919050565b600082825260208201905092915050565b7f496e73756666696369656e7420766f74696e6720706f77657200000000000000600082015250565b6000610c57601983610c10565b9150610c6282610c21565b602082019050919050565b60006020820190508181036000830152610c8681610c4a565b9050919050565b6000610c98826107aa565b9150610ca3836107aa565b9250828201905080821115610cbb57610cba610b99565b5b92915050565b7f43616c6c6572206973206e6f7420746865206f776e6572000000000000000000600082015250565b6000610cf7601783610c10565b9150610d0282610cc1565b602082019050919050565b60006020820190508181036000830152610d2681610cea565b9050919050565b6000604082019050610d4260008301856108ab565b610d4f6020830184610826565b9392505050565b600081519050610d65816107b4565b92915050565b600060208284031215610d8157610d806107a0565b5b6000610d8f84828501610d56565b91505092915050565b6000610da3826107aa565b9150610dae836107aa565b9250828203905081811115610dc657610dc5610b99565b5b9291505056fea2646970667358221220be81dd12050ed5bfc8ed94a8b4db8161805319102f20551971f69a371c57fccb64736f6c63430008130033",
  "linkReferences": {},
  "deployedLinkReferences": {}
}